:100000000C9465000C948D000C948D000C948D0064
:100010000C948D000C948D000C948D000C948D002C
:100020000C948D000C948D000C948D000C948D001C
:100030000C948D000C948D000C948D000C948D000C
:100040000C948D020C948D000C948D000C948D00FA
:100050000C948D000C948D000C948D000C948D00EC
:100060000C948D000C948D000000000024002700EB
:100070002A000000000023002600290000000000E4
:10008000250028002B0004040404040404040202D4
:100090000202020203030303030302010204081025
:1000A0002040800102040810200102040810208072
:1000B0000000000800020100000304070000000027
:1000C0000000000000004604CF0411241FBECFEF43
:1000D000D8E0DEBFCDBF21E0AAE0B1E001C01D92B3
:1000E000A834B207E1F711E0A0E0B1E0E8EEFCE0EF
:1000F00002C005900D92AA30B107D9F710E0C4E60E
:10010000D0E004C02197FE010E94F304C336D1075A
:10011000C9F70E94D7020C9467060C9400008F92D6
:100120009F92AF92BF92CF92DF92EF92FF92209177
:100130003101309132018217930708F052C04B0110
:10014000AA24BB24E82DC52ED62EE72EFF24FC2D95
:10015000342F20913601222361F0829E4001112428
:10016000E92DC29E60011124FD2D429FD001112472
:100170003B2FF0903C01E0903901A0913701B09104
:100180003801FE1008C0AC01440F551F840F951FA5
:100190008A0F9B1F14C0880F991F880F991F8A0F01
:1001A0009B1F472F552766277727DC01AF0DB11D11
:1001B000222321F0429FA0011124452F4C9320912E
:1001C0003901DC01A20FB11DEC9320913A01DC0151
:1001D000A20FB11DFC9320913B01FC01E20FF11D28
:1001E0003083FF90EF90DF90CF90BF90AF909F90C3
:1001F0008F900895833081F028F4813099F0823017
:10020000A1F008958730A9F08830B9F08430D1F496
:10021000809180008F7D03C0809180008F778093D4
:100220008000089584B58F7702C084B58F7D84BD2A
:1002300008958091B0008F7703C08091B0008F7DCA
:100240008093B0000895CF93DF93282F30E0F90119
:10025000E055FF4F8491F901E556FF4FD491F90124
:10026000EA57FF4FC491CC2399F081110E94FA0004
:10027000EC2FF0E0EE0FFF1FE458FF4FA591B49173
:100280008FB7F8949C91ED2FE095E923EC938FBF05
:10029000DF91CF910895CF93DF93282F30E0F901BC
:1002A000E055FF4F8491F901E556FF4FD491F901D4
:1002B000EA57FF4FC491CC2391F081110E94FA00BC
:1002C000EC2FF0E0EE0FFF1FEE58FF4FA591B49119
:1002D000EC91ED2381E090E021F480E002C080E029
:1002E00090E0DF91CF910895CF93DF9390E0FC01F0
:1002F000E556FF4F2491FC01EA57FF4F8491882374
:1003000061F190E0880F991FFC01E859FF4FC591FA
:10031000D491FC01E458FF4FA591B491611109C03B
:100320009FB7F8948881209582238883EC912E23AF
:100330000BC0623061F49FB7F8943881822F8095AA
:1003400083238883EC912E2B2C939FBF06C08FB7FD
:10035000F894E8812E2B28838FBFDF91CF910895E9
:100360003FB7F89480910F0190911001A091110175
:10037000B091120126B5A89B05C02F3F19F0019638
:10038000A11DB11D3FBFBA2FA92F982F8827820F1B
:10039000911DA11DB11DBC01CD0142E0660F771F6B
:1003A000881F991F4A95D1F708950F931F93CF93F4
:1003B000DF93CDB7DEB729970FB6F894DEBF0FBE37
:1003C000CDBF0E94B00100913D0110913E012091EE
:1003D0003F0130914001DC01CB01801B910BA20B4E
:1003E000B30BC297A105B10560F3F8948091330176
:1003F000909134019A838983E0913701F09138011B
:10040000DF0111968081898790912F01E091410150
:10041000F091420180914301992309F42EC090810B
:10042000982B98879081809589238F838F818C83E7
:1004300088E08B8358856F8149853B812C81898138
:100440009A81508347FD252F3A952083262F39F036
:10045000441F00C000006083000000C0F2CF38E0FD
:100460004D9160830000019761F7F0934201E093A2
:10047000410149873B832C8338C09081982B988712
:100480009081809589238F838F818E8388E08D83EF
:1004900058856F8149853D812E8189819A8150835C
:1004A00047FD252F00C000C0208300C000C000C051
:1004B00000C000C060830000262F3A9541F0441F21
:1004C000000000C000C000C000C000C0E8CF38E09D
:1004D0004D9100C0608300C0019709F7F09342017D
:1004E000E093410149873D832E839A8389837894E1
:1004F0000E94B00160933D0170933E0180933F01E3
:100500009093400129960FB6F894DEBF0FBECDBF81
:10051000DF91CF911F910F9108951F920F920FB607
:100520000F9211242F933F938F939F93AF93BF9379
:1005300080910B0190910C01A0910D01B0910E01E1
:1005400030910A0123E0230F2D3720F40196A11DDD
:10055000B11D05C026E8230F0296A11DB11D2093F1
:100560000A0180930B0190930C01A0930D01B093AD
:100570000E0180910F0190911001A0911101B09195
:1005800012010196A11DB11D80930F0190931001DE
:10059000A0931101B0931201BF91AF919F918F91E0
:1005A0003F912F910F900FBE0F901F901895789448
:1005B00084B5826084BD84B5816084BD85B5826068
:1005C00085BD85B5816085BD80916E008160809319
:1005D0006E00109281008091810082608093810082
:1005E0008091810081608093810080918000816092
:1005F000809380008091B10084608093B1008091ED
:10060000B00081608093B00080917A008460809314
:100610007A0080917A00826080937A0080917A00DB
:10062000816080937A0080917A00806880937A005C
:100630001092C10060E080E10E94740160E081E1FD
:100640000E94740160E082E10E94740160E083E135
:100650000E94740160913601613821F120913701C7
:1006600030913801615031F070E08FEF90E80E94D6
:10067000DF0402C060E070E0F90140913301509165
:100680003401CF01821B930B8417950740F44081FE
:10069000469FC001479F900D11249193EECF81E8B2
:1006A000809336018091350187FD07C061E00E948B
:1006B0007401809135010E94230181E08093300113
:1006C0008091370190913801892B11F00E94D5015A
:1006D00070E0872E70E0972EE1E43E2E30927C0091
:1006E00080917A00806480937A0080917A0086FD00
:1006F000FCCFC091780080917900D0E0D82BD093C6
:100700002E01C0932D0180E10E944B018C0190933A
:100710002C0180932B0181E10E944B017C0190937D
:100720002A018093290182E10E944B016C01909380
:1007300028018093270183E10E944B015C01909383
:10074000260180932501CE01DD0FAA0BBB0BBC0156
:10075000CD0127E0660F771F881F991F2A95D1F7D3
:100760002FEF33E040E050E00E9426063093240152
:1007700020932301722E662455244424C0E0D0E047
:10078000B301A201CE010E948F00C330D10574F4E1
:10079000C114D10459F040911F0150912001609182
:1007A000210170912201CE010E948F00CE0103979A
:1007B000039770F40115110559F040911B015091F8
:1007C0001C0160911D0170911E01CE010E948F00DD
:1007D000CE010697039770F4E114F10459F04091AB
:1007E0001701509118016091190170911A01CE0101
:1007F0000E948F00CE010997039770F4A114B104F1
:1008000059F04091130150911401609115017091BC
:100810001601CE010E948F002196CC30D10509F03F
:10082000AFCF8091370190913801892B11F00E9450
:10083000D5010E94B0012B013C0182E3C82ED12CCE
:10084000E12CF12C0E94B001DC01CB018419950947
:10085000A609B709883E9340A105B10558F021E0EB
:10086000C21AD108E108F10888EE480E83E0581E4C
:10087000611C711CC114D104E104F10419F7811445
:10088000910409F42BCF0E94000028CF1092300170
:100890001092360110923D0110923E0110923F01DC
:1008A0001092400183E080933C011092390181E075
:1008B00080933A0192E090933B0180932F0180E373
:1008C00090E090933401809333010E94F904909357
:1008D000380180933701009761F020E3FC01119209
:1008E0002A95E9F78CE090E09093320180933101F2
:1008F00008C010923401109233011092320110920C
:1009000031018EE08093350180913001882339F0E8
:1009100061E08EE00E9474018EE00E942301E4E910
:10092000F0E0E491F0E0EE0FFF1FE458FF4F8591F7
:1009300094919093420180934101E9EAF0E0E491BF
:10094000E093430180E09FEFA0E8B0E080931B01BB
:1009500090931C01A0931D01B0931E0180E09FEFB6
:10096000A0E0B0E08093170190931801A0931901C3
:10097000B0931A0140E050E06FEF70E040931F0128
:100980005093200160932101709322018093130101
:1009900090931401A0931501B093160108958091CE
:1009A000370190913801009711F00E948E058091D7
:1009B000350187FD03C060E00C9474010895AA1B03
:1009C000BB1B51E107C0AA1FBB1FA617B70710F03A
:1009D000A61BB70B881F991F5A95A9F7809590956C
:1009E000BC01CD010895EE0FFF1F0590F491E02D9D
:1009F0000994CF93DF938230910510F482E090E068
:100A0000E0914601F091470120E030E0C0E0D0E005
:100A1000309711F14081518148175907C0F04817AC
:100A2000590761F482819381209719F09B838A830F
:100A30002BC0909347018093460126C021153105B4
:100A400019F04217530718F49A01BE01DF01EF01B4
:100A50000280F381E02DDCCF2115310509F1281B3F
:100A6000390B2430310590F412968D919C91139797
:100A70006115710521F0FB019383828304C090937B
:100A8000470180934601FD01329644C0FD01E20F0B
:100A9000F31F81939193225031092D933C933AC0D7
:100AA0002091440130914501232B41F42091020112
:100AB00030910301309345012093440120910001BE
:100AC000309101012115310541F42DB73EB7409118
:100AD000040150910501241B350BE0914401F09174
:100AE0004501E217F307A0F42E1B3F0B2817390727
:100AF00078F0AC014E5F5F4F2417350748F04E0F7A
:100B00005F1F50934501409344018193919302C02C
:100B1000E0E0F0E0CF01DF91CF9108950F931F93B4
:100B2000CF93DF93009709F48CC0FC0132971382B6
:100B3000128200914601109147010115110581F4BF
:100B400020813181820F931F209144013091450112
:100B50002817390779F5F0934501E093440171C0F6
:100B6000D80140E050E0AE17BF0750F412962D9127
:100B70003C911397AD012115310509F1D901F3CF4E
:100B80009D01DA013383228360817181860F971F73
:100B90008217930769F4EC0128813981260F371FEA
:100BA0002E5F3F4F318320838A819B819383828391
:100BB000452B29F4F0934701E093460142C0139678
:100BC000FC93EE931297ED01499159919E01240FE8
:100BD000351FE217F30771F480819181840F951F0F
:100BE000029611969C938E938281938113969C9387
:100BF0008E931297E0E0F0E0D80112968D919C91CF
:100C00001397009719F0F8018C01F6CF8D919C9104
:100C100098012E5F3F4F820F931F20914401309126
:100C200045012817390769F4309729F410924701D4
:100C30001092460102C01382128210934501009364
:100C40004401DF91CF911F910F910895052E97FBDD
:100C50001EF400940E943D0657FD07D00E944506F1
:100C600007FC03D04EF40C943D065095409530950A
:100C700021953F4F4F4F5F4F089590958095709508
:100C800061957F4F8F4F9F4F0895A1E21A2EAA1BA7
:100C9000BB1BFD010DC0AA1FBB1FEE1FFF1FA2172C
:100CA000B307E407F50720F0A21BB30BE40BF50B29
:100CB000661F771F881F991F1A9469F760957095B2
:100CC000809590959B01AC01BD01CF01089510E086
:100CD000C4E6D0E004C0FE010E94F3042196C536AC
:080CE000D107C9F7F894FFCF1A
:0A0CE8000000480180000100000038
:00000001FF
